{
  "contractName": "FlashloanProvider",
  "abi": [
    {
      "inputs": [
        {
          "internalType": "address[]",
          "name": "_supportedTokens",
          "type": "address[]"
        }
      ],
      "stateMutability": "nonpayable",
      "type": "constructor"
    },
    {
      "inputs": [
        {
          "internalType": "address",
          "name": "",
          "type": "address"
        }
      ],
      "name": "tokens",
      "outputs": [
        {
          "internalType": "contract IERC20",
          "name": "",
          "type": "address"
        }
      ],
      "stateMutability": "view",
      "type": "function"
    },
    {
      "inputs": [
        {
          "internalType": "address",
          "name": "_callback",
          "type": "address"
        },
        {
          "internalType": "uint256",
          "name": "_amountTokens",
          "type": "uint256"
        },
        {
          "internalType": "address",
          "name": "_token",
          "type": "address"
        },
        {
          "internalType": "bytes",
          "name": "_data",
          "type": "bytes"
        }
      ],
      "name": "executeFlashloan",
      "outputs": [],
      "stateMutability": "nonpayable",
      "type": "function"
    }
  ],
  "bytecode": "0x60806040523480156200001157600080fd5b5060405162000d9e38038062000d9e833981810160405281019062000037919062000223565b600160008190555060005b8151811015620001625781818151811062000086577f4e487b7100000000000000000000000000000000000000000000000000000000600052603260045260246000fd5b602002602001015160016000848481518110620000cc577f4e487b7100000000000000000000000000000000000000000000000000000000600052603260045260246000fd5b602002602001015173ffffffffffffffffffffffffffffffffffffffff1673ffffffffffffffffffffffffffffffffffffffff16815260200190815260200160002060006101000a81548173ffffffffffffffffffffffffffffffffffffffff021916908373ffffffffffffffffffffffffffffffffffffffff1602179055508080620001599062000334565b91505062000042565b50506200040b565b6000620001816200017b8462000291565b62000268565b90508083825260208201905082856020860282011115620001a157600080fd5b60005b85811015620001d55781620001ba8882620001df565b845260208401935060208301925050600181019050620001a4565b5050509392505050565b600081519050620001f081620003f1565b92915050565b600082601f8301126200020857600080fd5b81516200021a8482602086016200016a565b91505092915050565b6000602082840312156200023657600080fd5b600082015167ffffffffffffffff8111156200025157600080fd5b6200025f84828501620001f6565b91505092915050565b60006200027462000287565b9050620002828282620002fe565b919050565b6000604051905090565b600067ffffffffffffffff821115620002af57620002ae620003b1565b5b602082029050602081019050919050565b6000620002cd82620002d4565b9050919050565b600073ffffffffffffffffffffffffffffffffffffffff82169050919050565b6000819050919050565b6200030982620003e0565b810181811067ffffffffffffffff821117156200032b576200032a620003b1565b5b80604052505050565b60006200034182620002f4565b91507fffffffffffffffffffffffffffffffffffffffffffffffffffffffffffffffff82141562000377576200037662000382565b5b600182019050919050565b7f4e487b7100000000000000000000000000000000000000000000000000000000600052601160045260246000fd5b7f4e487b7100000000000000000000000000000000000000000000000000000000600052604160045260246000fd5b6000601f19601f8301169050919050565b620003fc81620002c0565b81146200040857600080fd5b50565b610983806200041b6000396000f3fe608060405234801561001057600080fd5b50600436106100365760003560e01c80635c26993c1461003b578063e486033914610057575b600080fd5b610055600480360381019061005091906104c7565b610087565b005b610071600480360381019061006c919061049e565b6103c4565b60405161007e9190610655565b60405180910390f35b600260005414156100cd576040517f08c379a00000000000000000000000000000000000000000000000000000000081526004016100c4906106b0565b60405180910390fd5b6002600081905550600073ffffffffffffffffffffffffffffffffffffffff168273ffffffffffffffffffffffffffffffffffffffff161415610145576040517f08c379a000000000000000000000000000000000000000000000000000000000815260040161013c90610670565b60405180910390fd5b60008290508073ffffffffffffffffffffffffffffffffffffffff16600160008573ffffffffffffffffffffffffffffffffffffffff1673ffffffffffffffffffffffffffffffffffffffff16815260200190815260200160002060009054906101000a900473ffffffffffffffffffffffffffffffffffffffff1673ffffffffffffffffffffffffffffffffffffffff16146101e157600080fd5b60008173ffffffffffffffffffffffffffffffffffffffff166370a08231306040518263ffffffff1660e01b815260040161021c919061063a565b60206040518083038186803b15801561023457600080fd5b505afa158015610248573d6000803e3d6000fd5b505050506040513d601f19601f8201168201806040525081019061026c9190610542565b90508085111561027b57600080fd5b8573ffffffffffffffffffffffffffffffffffffffff1663a6fc41ab8686866040518463ffffffff1660e01b81526004016102b8939291906106d0565b600060405180830381600087803b1580156102d257600080fd5b505af11580156102e6573d6000803e3d6000fd5b50505050808273ffffffffffffffffffffffffffffffffffffffff166370a08231306040518263ffffffff1660e01b8152600401610324919061063a565b60206040518083038186803b15801561033c57600080fd5b505afa158015610350573d6000803e3d6000fd5b505050506040513d601f19601f820116820180604052508101906103749190610542565b146103b4576040517f08c379a00000000000000000000000000000000000000000000000000000000081526004016103ab90610690565b60405180910390fd5b5050600160008190555050505050565b60016020528060005260406000206000915054906101000a900473ffffffffffffffffffffffffffffffffffffffff1681565b600061040a61040584610733565b61070e565b90508281526020810184848401111561042257600080fd5b61042d8482856107f1565b509392505050565b6000813590506104448161091f565b92915050565b600082601f83011261045b57600080fd5b813561046b8482602086016103f7565b91505092915050565b60008135905061048381610936565b92915050565b60008151905061049881610936565b92915050565b6000602082840312156104b057600080fd5b60006104be84828501610435565b91505092915050565b600080600080608085870312156104dd57600080fd5b60006104eb87828801610435565b94505060206104fc87828801610474565b935050604061050d87828801610435565b925050606085013567ffffffffffffffff81111561052a57600080fd5b6105368782880161044a565b91505092959194509250565b60006020828403121561055457600080fd5b600061056284828501610489565b91505092915050565b61057481610791565b82525050565b600061058582610764565b61058f818561076f565b935061059f818560208601610800565b6105a881610893565b840191505092915050565b6105bc816107cd565b82525050565b60006105cf601583610780565b91506105da826108a4565b602082019050919050565b60006105f2601883610780565b91506105fd826108cd565b602082019050919050565b6000610615601f83610780565b9150610620826108f6565b602082019050919050565b610634816107c3565b82525050565b600060208201905061064f600083018461056b565b92915050565b600060208201905061066a60008301846105b3565b92915050565b60006020820190508181036000830152610689816105c2565b9050919050565b600060208201905081810360008301526106a9816105e5565b9050919050565b600060208201905081810360008301526106c981610608565b9050919050565b60006060820190506106e5600083018661062b565b6106f2602083018561056b565b8181036040830152610704818461057a565b9050949350505050565b6000610718610729565b90506107248282610833565b919050565b6000604051905090565b600067ffffffffffffffff82111561074e5761074d610864565b5b61075782610893565b9050602081019050919050565b600081519050919050565b600082825260208201905092915050565b600082825260208201905092915050565b600061079c826107a3565b9050919050565b600073ffffffffffffffffffffffffffffffffffffffff82169050919050565b6000819050919050565b60006107d8826107df565b9050919050565b60006107ea826107a3565b9050919050565b82818337600083830152505050565b60005b8381101561081e578082015181840152602081019050610803565b8381111561082d576000848401525b50505050565b61083c82610893565b810181811067ffffffffffffffff8211171561085b5761085a610864565b5b80604052505050565b7f4e487b7100000000000000000000000000000000000000000000000000000000600052604160045260246000fd5b6000601f19601f8301169050919050565b7f696e76616c696420746f6b656e20616464726573730000000000000000000000600082015250565b7f666c6173686c6f616e206e6f74207265696d6275727365640000000000000000600082015250565b7f5265656e7472616e637947756172643a207265656e7472616e742063616c6c00600082015250565b61092881610791565b811461093357600080fd5b50565b61093f816107c3565b811461094a57600080fd5b5056fea2646970667358221220697546604bd67cb948e8f636f0adb5bae35ef7fcf76153f0e77125b1816e368864736f6c63430008040033",
  "immutableReferences": {},
  "source": "// SPDX-License-Identifier: MIT\npragma solidity ^0.8.0;\n\nimport '@openzeppelin/contracts/token/ERC20/IERC20.sol';\nimport '@openzeppelin/contracts/security/ReentrancyGuard.sol';\nimport './IFlashloanUser.sol';\n\ncontract FlashloanProvider is ReentrancyGuard {\n\n    // keep track of all the tokens that can be lent\n    mapping(address => IERC20) public tokens;\n\n    constructor(address[] memory _supportedTokens) {\n        // add the supported tokens\n        for(uint i=0; i < _supportedTokens.length; i++) {\n            tokens[_supportedTokens[i]] = IERC20(_supportedTokens[i]);\n        }\n\n    }\n\n    /// @notice function to execute smart contract with Reentrancy protection\n    /// @param _callback the address to receive the flashloan \n    /// @param _amountTokens the amount of tokens to borrow\n    /// @param _token the addrress of the token to borrow\n    /// @param _data data to send with .flashloanCallback()\n    function executeFlashloan(\n        address _callback, \n        uint _amountTokens,\n        address _token,\n        bytes memory _data\n    ) \n    external \n    nonReentrant()\n    {\n        // check that token is not zero address\n        require(_token != address(0), 'invalid token address');\n        IERC20 token = IERC20(_token);\n        // check token is supported\n        require(tokens[_token] == token);\n        // keep track of originalBalance token that must be restored at end\n        uint originalBalance = token.balanceOf(address(this));\n        // check that amount loan requested is less than or equal available tokens\n        require(_amountTokens <= originalBalance);\n        // \n        IFlashloanUser(_callback).flashloanCallback(_amountTokens, _token, _data);\n        // ensure amounToken is repaid\n        require(token.balanceOf(address(this)) == originalBalance, 'flashloan not reimbursed');\n\n    }\n\n}",
  "sourcePath": "/Users/zed/Desktop/flashLoan/contracts/FlashloanProvider.sol",
  "compiler": {
    "name": "solc",
    "version": "0.8.4+commit.c7e474f2.Emscripten.clang"
  },
  "schemaVersion": "3.3.4",
  "updatedAt": "2021-05-04T07:52:39.731Z",
  "devdoc": {
    "kind": "dev",
    "methods": {
      "executeFlashloan(address,uint256,address,bytes)": {
        "params": {
          "_amountTokens": "the amount of tokens to borrow",
          "_callback": "the address to receive the flashloan ",
          "_data": "data to send with .flashloanCallback()",
          "_token": "the addrress of the token to borrow"
        }
      }
    },
    "version": 1
  },
  "userdoc": {
    "kind": "user",
    "methods": {
      "executeFlashloan(address,uint256,address,bytes)": {
        "notice": "function to execute smart contract with Reentrancy protection"
      }
    },
    "version": 1
  }
}